:100000000C9435000C945D000C945D000C945D0024
:100010000C945D000C945D000C945D000C948402C3
:100020000C945D000C945D000C945D000C945D00DC
:100030000C945D000C945D000C945D000C945D00CC
:100040000C94E2010C945D000C9452020C942C026E
:100050000C945D000C945D000C945D000C945D00AC
:100060000C945D000C945D009F0411241FBECFEF23
:10007000D8E0DEBFCDBF11E0A0E0B1E0ECEEF9E0EA
:1000800002C005900D92A032B107D9F721E0A0E29D
:10009000B1E001C01D92A33DB207E1F710E0C5E356
:1000A000D0E004C02197FE010E94EE04C433D107C2
:1000B000C9F70E94A4030C94F4040C9400003FB709
:1000C000F8948091320190913301A0913401B09164
:1000D000350126B5A89B05C02F3F19F00196A11D3B
:1000E000B11D3FBFBA2FA92F982F8827BC01CD0182
:1000F000620F711D811D911D42E0660F771F881FE1
:10010000991F4A95D1F70895AF92BF92CF92DF928F
:10011000EF92FF920F931F93CF93DF936C017B01BC
:100120008B01040F151FEB015E01AE18BF08C0174D
:10013000D10759F06991D601ED91FC910190F081C0
:10014000E02DC6010995892B79F7C501DF91CF9183
:100150001F910F91FF90EF90DF90CF90BF90AF90E5
:100160000895FC01538D448D252F30E0842F90E0BD
:10017000821B930B541710F0CF96089501970895A2
:10018000FC01918D828D981761F0A28DAE0FBF2F6B
:10019000B11D5D968C91928D9F5F9F73928F90E0C1
:1001A00008958FEF9FEF0895FC01918D828D981730
:1001B00031F0828DE80FF11D858D90E008958FEF6D
:1001C0009FEF0895FC01918D228D892F90E0805C36
:1001D0009F4F821B91098F739927089586E391E0C1
:1001E0000E94E20021E0892B09F420E0822F08958B
:1001F00080E090E0892B29F00E94EE0081110C94A0
:1002000000000895FC01A48DA80FB92FB11DA35AB9
:10021000BF4F2C91848D90E001968F739927848F26
:10022000A689B7892C93A089B1898C918370806449
:100230008C93938D848D981306C00288F389E02DEA
:1002400080818F7D80830895EF92FF920F931F939B
:10025000CF93DF93EC0181E0888F9B8D8C8D981379
:100260001AC0E889F989808185FF15C09FB7F89485
:10027000EE89FF896083E889F989808183708064D1
:1002800080839FBF81E090E0DF91CF911F910F911C
:10029000FF90EF900895F62E0B8D10E00F5F1F4F2B
:1002A0000F731127E02E8C8D8E110CC00FB607FC3A
:1002B000FACFE889F989808185FFF5CFCE010E94C8
:1002C0000201F1CFEB8DEC0FFD2FF11DE35AFF4F33
:1002D000F0829FB7F8940B8FEA89FB898081806256
:1002E000CFCFCF93DF93EC01888D8823B9F0AA8913
:1002F000BB89E889F9898C9185FD03C0808186FDE1
:100300000DC00FB607FCF7CF8C9185FFF2CF80812F
:1003100085FFEDCFCE010E940201E9CFDF91CF91A1
:100320000895FC0101900020E9F73197AF01481BC7
:10033000590BBC0186E391E00C9484008F929F924C
:10034000AF92BF920F931F93CF93DF93CDB7DEB7DA
:10035000A1970FB6F894DEBF0FBECDBF19A24230F1
:1003600008F44AE08E010F5D1F4F842E912CB12CB2
:10037000A12CA50194010E94CC04E62FB901CA0169
:10038000EA30F4F4E05DD801EE938D01232B242BA9
:10039000252B79F790E080E0109719F0CD010E94AD
:1003A0009101A1960FB6F894DEBF0FBECDBFDF91CD
:1003B000CF911F910F91BF90AF909F908F90089514
:1003C000E95CE1CF1F920F920FB60F9211242F9389
:1003D0003F938F939F93AF93BF9380912E01909102
:1003E0002F01A0913001B091310130912D0123E016
:1003F000230F2D3758F50196A11DB11D20932D0116
:1004000080932E0190932F01A0933001B09331017E
:100410008091320190913301A0913401B091350166
:100420000196A11DB11D8093320190933301A093D9
:100430003401B0933501BF91AF919F918F913F915E
:100440002F910F900FBE0F901F90189526E8230F45
:100450000296A11DB11DD2CF1F920F920FB60F921F
:1004600011242F933F934F935F936F937F938F93B9
:100470009F93AF93BF93EF93FF9386E391E00E9426
:100480000201FF91EF91BF91AF919F918F917F9169
:100490006F915F914F913F912F910F900FBE0F90F1
:1004A0001F9018951F920F920FB60F9211242F9341
:1004B0008F939F93EF93FF93E0914601F091470153
:1004C0008081E0914C01F0914D0182FD1BC0908133
:1004D00080914F018F5F8F7320915001821741F0FF
:1004E000E0914F01F0E0EA5CFE4F958F80934F0161
:1004F000FF91EF919F918F912F910F900FBE0F90D1
:100500001F9018958081F4CF1F920F920FB60F9213
:1005100011242F933F934F935F938F939F93AF93A8
:10052000BF93F89480E480937C0080917A0080648B
:1005300080937A0080917A0086FDFCCF80917800CC
:100540009091790090932C0180932B01809125014B
:1005500090912601A0912701B09128010296A11D3A
:10056000B11D8093250190932601A0932701B0939C
:1005700028012091250130912601409127015091B9
:1005800028018091210190912201A0912301B09135
:100590002401281B390B40912B0150912C01809193
:1005A000060190910701481759079CF440912B01CF
:1005B00050912C0180910401909105014817590731
:1005C00044F480912B0190912C019093050180932C
:1005D000040140912B0150912C01809106019091D2
:1005E0000701841795079CF440912B0150912C0131
:1005F00080910201909103018417950744F4809142
:100600002B0190912C0190930301809302012B3FC9
:10061000310544F140912B0150912C01809106014C
:100620009091070184179507ECF4809120018111C6
:1006300019C081E08093200181E090E090932A012D
:10064000809329018091250190912601A091270195
:10065000B09128018093210190932201A09323015E
:10066000B093240140912B0150912C0180910601FF
:100670009091070148175907B4F58091200188230C
:1006800091F110922001809102019091030140911B
:10069000040150910501841B950B909301018093F7
:1006A000000180910001909101014091040150915D
:1006B000050197FD019695958795840F951F909359
:1006C00007018093060180910601909107019093A4
:1006D000030180930201809106019091070190939C
:1006E000050180930401253C394004F182E192E048
:1006F000909307018093060180E092E090930301BC
:10070000809302019093050180930401809125015B
:1007100090912601A0912701B09128018093210199
:1007200090932201A0932301B09324017894BF9168
:10073000AF919F918F915F914F913F912F910F902A
:100740000FBE0F901F901895789484B5826084BD79
:1007500084B5816084BD85B5826085BD85B58160C5
:1007600085BD80916E00816080936E001092810043
:1007700080918100826080938100809181008160FE
:1007800080938100809180008160809380008091BF
:10079000B10084608093B1008091B000816080934B
:1007A000B00080917A00846080937A0080917A0012
:1007B000826080937A0080917A00816080937A00D1
:1007C00080917A00806880937A001092C100E09155
:1007D0004601F091470182E08083E0914201F0916F
:1007E00043011082E0914401F091450190E1908332
:1007F00010924E01E0914A01F0914B0126E02083D6
:10080000E0914801F0914901908190619083E091DD
:100810004801F0914901908198609083E0914801EE
:10082000F0914901908190689083E0914801F091A6
:10083000490190819F7D90838093B0002093B10007
:100840009CE79093B30080937000789400E010E0F0
:10085000C0902B01D0902C01C0912901D0912A0188
:100860000D2C000CEE08FF084AE0C701B601F7FEA8
:100870000DC06DE286E391E00E9424016627772790
:10088000CB016C197D098E099F094AE00E949E01E7
:100890008AE191E00E9491016E010D2E000CEE089C
:1008A000FF084AE0C701B601F7FE0DC06DE286E31E
:1008B00091E00E94240166277727CB016C197D09FE
:1008C0008E099F094AE00E949E018CE191E00E94FE
:1008D0009101219721F410922A01109229010E947E
:1008E0005F004B015C018AE0C82ED12CE12CF12C79
:1008F0000E945F00681979098A099B09683E734064
:1009000081059105A8F321E0C21AD108E108F10898
:1009100088EE880E83E0981EA11CB11CC114D1047E
:10092000E104F10429F70115110509F491CF0E94A2
:10093000EE00882309F48CCF0E94000089CFE6E303
:10094000F1E01382128288EE93E0A0E0B0E08483AD
:100950009583A683B7838CE091E09183808385ECB7
:1009600090E09587848784EC90E09787868780EC79
:1009700090E0918B808B81EC90E0938B828B82EC6A
:1009800090E0958B848B86EC90E0978B868B118E14
:10099000128E138E148E0895A1E21A2EAA1BBB1B71
:1009A000FD010DC0AA1FBB1FEE1FFF1FA217B3073B
:1009B000E407F50720F0A21BB30BE40BF50B661F51
:1009C000771F881F991F1A9469F760957095809515
:1009D00090959B01AC01BD01CF010895EE0FFF1F63
:0C09E0000590F491E02D0994F894FFCFED
:1009EC0064000002000212020000000024018400D6
:1009FC00B1007101E200C000D4002C000D0A00000F
:00000001FF
